:020000040800F2
:10000000F060042001040008E99E00083183000824
:10001000E59E00087D1B00088DB900081304000848
:10002000000000000000000000000000F1A800082F
:10003000BD1C000800000000B1A400081DA90008B4
:100040001D0400081D0400088DA700081D040008F9
:100050001D0400081D0400081D0400081D040008FC
:100060001D0400081D0400081D0400081D040008EC
:100070001D0400081D0400081D0400081D040008DC
:100080001D0400081D0400081D0400081D040008CC
:100090001D0400081D0400081D0400081D040008BC
:1000A0001D0400081D0400081D0400081D040008AC
:1000B00000000000C91C0008F91C00081D0400080D
:1000C000051D00081D0400081D0400081D0400088B
:1000D0001D0400081D0400081D0400081D0400087C
:1000E0001D04000835AA000841AA00081D040008E4
:1000F0001D0400081D0400081D0400081D0400085C
:100100001D0400084DAA00081D0400081D04000875
:100110001D0400081D0400081D0400081D0400083B
:100120001D0400081D0400081D04000899A700080C
:100130001D04000881B900081D0400081D04000802
:100140001D0400081D0400081D0400081D0400080B
:100150001D0400081D0400081D0400081D040008FB
:100160001D0400081D0400081D0400081D040008EB
:100170001D0400081D0400081D0400081D040008DB
:100180001D0400081D040008D51C0008E11C00081F
:10019000ED1C00081D0400081D0400081D040008D3
:1001A000358300081D0400081D0400081D04000814
:1001B0001D040008000000001D0400081D040008C4
:1001C0001D040008000000001D0400081D040008B4
:1001D0001D0400081D0400081D0400081D0400087B
:1001E0001D0400081D0400081D0400081D0400086B
:1001F00000000000000000001D0400081D040008AD
:100200001D0400081D0400081D0400081D0400084A
:100210001D0400081D0400081D0400081D0400083A
:100220001D0400081D0400081D0400081D0400082A
:100230001D0400081D04000800F002F800F0D1F8C9
:1002400014A696E8000CB244B344DA4501D100F09C
:10025000C8F8BAE80F000FA696E83000A5EB040531
:1002600004EB0607AAEB0704A7F101074FEA1515EF
:100270004FEA3414A4F10104AC4201D300F0B1F808
:1002800013F0010F18BFFB1A43F0010300F001F84F
:10029000DBE71847D0000500F00005000A444FF0E6
:1002A000000C10F8013B13F0070408BF10F8014BD5
:1002B0001D1108BF10F8015B641E05D010F8016B1A
:1002C000641E01F8016BF9D113F0080F1EBF10F87E
:1002D000014BAD1C0C1B09D16D1E58BF01F801CBA1
:1002E000FAD505E014F8016B01F8016B6D1EF9D524
:1002F0009142D6D3704700007047000000230024CD
:1003000000250026103A28BF78C1FBD8520728BF25
:1003100030C148BF0B6070476E2900F039837029E7
:1003200000F07B84662927F03280652927F02F8032
:10033000672927F02C80612927F02B8003681B0A8E
:1003400028BF41F08001692900F0E682642900F0AD
:10035000E382752900F0E0826F2900F00984782992
:1003600000F04784E92900F0A383E42900F0A0838A
:10037000F52900F09D83EF2900F00684F82900F0AC
:1003800046840368DB0928BF41F08001632901F03E
:10039000D781732901F0DC81E32901F0E781F3299A
:1003A00001F0EC81002070471FB526F0E3FF9DE8C7
:1003B000030000F05BFD01F063FA0400002000215F
:1003C00026F0C2FF401C60600020002126F0A6FF3E
:1003D000E06000F0D3F91FBD10B5002001F0F6F980
:1003E00010BD01F020FA1146FFF7DEFF24F096FC65
:1003F00001F016FB03B4FFF7EFFF03BC00F010FDA4
:100400000A4880470A480047FEE7FEE7FEE7FEE7A6
:10041000FEE7FEE7FEE7FEE7FEE7FEE7FEE7000099
:1004200004480549054A064B70470000E9A9000841
:1004300039020008F05A0420F0600420F05C042027
:10044000F05C042053EA020C00F069802DE9F04BC7
:100450004FF00006002B1FBFB3FA83F503FA05F433
:1004600024FA05F65E4012BF1643B2FA82F502FA8C
:1004700005F4C5F120051EBF22FA05FC44EA0C0470
:10048000203556EA044C4FEA144418BF641C4FF060
:1004900000084FF00009904271EB030C39D300299A
:1004A00019BFB1FA81F701FA07F6B0FA80F700FA3E
:1004B00007F6C7F120071EBF20FA07FC46EA0C0624
:1004C0002037B6FBF4FCA7EB0507103F07F01F0B26
:1004D000CBF120062CFA06F60CFA0BFB44BFB34610
:1004E0000026202FA4BF5E464FF0000B5BEA060CEF
:1004F00008BF4FF0010B19EB0B0948EB0608ABFBEB
:10050000027C06FB02CC0BFB03CCC01B71EB0C0185
:10051000C1E70B46024641464846BDE8F08B13B59D
:10052000084318BF4FF0FF300146AFF30080BDE82D
:100530001C4070471CB50C46064B7B446946009036
:10054000204600F03EFA04460020694600F04CFACE
:1005500020461CBDAB0400000B460146184600F0C7
:1005600036BC00000EB5054614460E4613A000F03A
:1005700045FC284600F042FC16A000F03FFC304647
:1005800000F03CFC15A000F039FC00218DF80B10A8
:100590000A210DF10A008DF80A1008E094FBF1F22F
:1005A00001FB124294FBF1F4303200F8012D002CD3
:1005B000F4DC00F023FC00F0FFFB00002A2A2A20D4
:1005C000617373657274696F6E206661696C6564CE
:1005D0003A2000002C2066696C6520002C206C6994
:1005E0006E652000032A40F2308010F0030C00F00A
:1005F000158011F8013BBCF1020F624498BF11F85D
:1006000001CB00F8013B38BF11F8013BA2F1040215
:1006100098BF00F801CB38BF00F8013B11F003038D
:1006200000F02580083AC0F0088051F8043B083AF1
:1006300051F804CBA0E80810F5E7121D5CBF51F893
:10064000043B40F8043BAFF30080D20724BF11F80D
:10065000013B11F801CB48BF11F8012B24BF00F872
:10066000013B00F801CB48BF00F8012B704710B5E3
:10067000203AC0F00B80B1E81850A0E81850B1E85B
:100680001850A0E81850203ABFF4F5AF5FEA027C9A
:1006900024BFB1E81850A0E8185044BF18C918C0CA
:1006A000BDE810405FEA827C24BF51F8043B40F86B
:1006B000043B08BF7047D20728BF31F8023B48BF50
:1006C00011F8012B28BF20F8023B48BF00F8012B8E
:1006D000704702F0FF0343EA032242EA024200F0BD
:1006E00024B84FF000020429C0F0128010F0030C6F
:1006F00000F01B80CCF1040CBCF1020F18BF00F815
:10070000012BA8BF20F8022BA1EB0C0100F00DB8C3
:100710005FEAC17C24BF00F8012B00F8012B48BF21
:1007200000F8012B70474FF0000200B513469446C5
:100730009646203922BFA0E80C50A0E80C50B1F139
:100740002001BFF4F7AF090728BFA0E80C5048BF4D
:100750000CC05DF804EB890028BF40F8042B08BFEB
:10076000704748BF20F8022B11F0804F18BF00F8E7
:10077000012B7047704770477047000008487CB5F0
:100780007844009007487844009C0546019004E0B6
:100790002046016808448047241DAC42F8D17CBD46
:1007A0003CFD04003EFD040070B5064600F03EFB33
:1007B000056806F10B0020F00704B4429CBF00203E
:1007C00070BD2B466A68BAB11068A04210D304F11C
:1007D000080188423CBF5068586007D3516810191F
:1007E00041601168091B016058601460101D70BDE4
:1007F00013465268002AE7D12146284600F022FB22
:100800000028DED170BD70B50446051F00F00EFB58
:100810000068002C14BF446870BD002C18BFAC42A7
:100820003CBF20466468F8D301680A18AA4218BF82
:10083000456003D12A6805461144016028684119C2
:10084000A1421CBF6C6070BD61686960216808448A
:10085000286070BD70B5044685690068C10601D581
:10086000302600E02026C00707D070BDD4E9012162
:1008700030469047206A401C20626D1EF6D570BD40
:1008800070B5044685690078C00707D170BDD4E90A
:10089000012120209047206A401C20626D1EF6D561
:1008A00070BD09684A0501D540B27047C905FCD53D
:1008B00000B2704709684A0501D5C0B27047C90542
:1008C000FCD580B2704770B50C460546012A05D0AC
:1008D0002878800600D5EA69002302E0012305E0BC
:1008E0005B1C934202D2E05C0028F9D1A869E618AB
:1008F000C01AA861286A184428622846FFF7AAFF90
:1009000004E0D5E9012114F8010B9047B442F8D373
:100910002846FFF7B5FF70BD2DE9F04106460024DB
:1009200010687529314616A510D0FFF7BAFF0028C8
:1009300002DA404213A507E031688A0701D512A503
:1009400002E0490704D511A5012401E0FFF7B2FF39
:1009500000210A2206F1240709E0B0FBF2FCB0FBFB
:10096000F2F302FB1C00303078541846491C002872
:10097000F3D123462A463046BDE8F04100F0F0BAF4
:10098000000000002D0000002B00000020000000EF
:1009900011680268006A530501D508700AE0D305A2
:1009A00001D5088006E0130603D5C217C1E900028D
:1009B00000E008600120704701694A1C0261087864
:1009C000704700B58FB0CDE901310021059105498F
:1009D0007944CDE903101146684600F029F90FB0BB
:1009E00000BD0000E5FFFFFF0A6802F8010B0A6086
:1009F000704700002DE9FF5F15468A460446DFF880
:100A0000AC80F8440027D8E900103E46CDE900103C
:100A100010E03AF816106A4602A800F0B3FE411C36
:100A200007D02178890603D5E269391891420DD89B
:100A30000744761C2078800602D5E069B84205DDBF
:100A4000AE42E6DB3AF816000028E2D1A069C01BEE
:100A5000A0612046FFF7FEFED8E90010CDE90010A6
:100A6000002017E03AF818106A4602A800F08AFE43
:100A7000B0F1FF3F81460BD000250DF1080B05E0DA
:100A8000D4E901211BF8050090476D1C4D45F7D3B3
:100A900008F10100B0428046E4DB206A384420625D
:100AA0002046FFF7EDFEBDE8FF9F000092690200BF
:100AB0002DE9F0418046D21D22F007020025D2E93F
:100AC0000002F52915A614D0011E72F1000106DA04
:100AD0000023D0EB030063EB020211A608E0D8F874
:100AE00000108B0701D50FA602E0490701D50EA61D
:100AF00001251146002408F1240704E000F0EBF979
:100B000030323A55641C50EA0102F7D12B46324686
:100B100021464046BDE8F04100F022BA0000000046
:100B20002D0000002B0000002000000030B4002148
:100B300000F1240408E002F00705D208303542EA4B
:100B40004372DB086554491C52EA0305F3D104687B
:100B5000002310A2250708D504F020040C4304D07C
:100B6000C46901230CA2641EC46130BC00F0F8B952
:100B700010B5044621461068FFF79CFE0246204649
:100B8000BDE810400023D1E7D21D22F00701D1E9D2
:100B90000023CBE70000000030000000F0B40D4659
:100BA0000188090502D5214C7C4402E01F4C7C449D
:100BB0000E34002100F1240608E002F00F071209AC
:100BC000E75D42EA03721B097754491C52EA0307A6
:100BD000F3D102780023120704D5702D06D009B195
:100BE000022311342246F0BC00F0BAB901231034BC
:100BF000F8E770B504460D4621461068FFF75AFE27
:100C0000024629462046BDE870400023C6E7D21DB3
:100C100022F00703D3E90023C0E70368126843F01A
:100C2000200303600823C3610023B7E7F4670200D1
:100C30002DE9F05F894604464FF0000ADFF874B1F1
:100C4000FB44C0F820A02046E1688847002874D003
:100C5000252806D0D4E901219047206A401C206253
:100C6000F1E700265F462046E168884720280546D0
:100C700007DB312D05D2781910F8200C08B1064396
:100C8000F1E7B00701D526F00406C4F81CA0002740
:100C9000C4F818A02A2D09D0284626F037FB38B30F
:100CA00004EB8708303DC8F8185019E059F8041BC8
:100CB000204604EB87029161E1688847012F0546D1
:100CC00018D1E069002820DA26F020061DE0D8F8C7
:100CD000180000EB800005EB40003038C8F8180021
:100CE0002046E1688847054626F010FB0028EED133
:100CF000012F0AD02E2D08D12046E16888477F1C9D
:100D00000546022F46F02006C4DBA069002803DA5E
:100D1000404246F00106A061F00701D026F010061F
:100D20006C2D0BD0682D09D04C2D39D06A2D35D0C3
:100D3000742D35D07A2D33D016E038E0E1682F4697
:100D400020468847B842054609D16C2F26D04FF47B
:100D50008060E168064320468847054604E06C2F22
:100D60001AD04FF4807006430DB3A5F14100192845
:100D700002D8203546F400664A46294620462660B9
:100D80004E46FFF7C9FA80B101280BD0F61D26F0B8
:100D9000070000F1080956E74020E4E78020D8E783
:100DA0000020D6E706F104094DE7284652E7206AFD
:100DB000BDE8F09F8467020010B5002000F027FD19
:100DC000FFF70AFBBDE81040012000F029B82DE92B
:100DD000F041074615460E461020FFF7E5FC0400DB
:100DE0000AD06760C4E9026500F024F80168216058
:100DF00004600020BDE8F0810120FBE710B5044647
:100E000002E0641C00F004F820780028F9D110BD3D
:100E100008B569468DF800000320ABBE08BD000090
:100E200001491820ABBEFEE72600020000487047CB
:100E3000A01A042000487047D01A04207047704759
:100E40007047704738B504460A4600206946AFF33C
:100E50000080002808BF38BD02460099204600F0F7
:100E600013FD012038BD012000F000BEF8B5AFF33E
:100E70000080054600200C460C2000BF0646A8193D
:100E8000A0420DD9324669460020AFF3008007002A
:100E900008BF00F0EBFD0098A04218BF0546C4193A
:100EA000FFF7C4FF05600746F01D20F00700461954
:100EB000284600F00AF8B44208BFF8BDA21B31462C
:100EC0003868BDE8F84000F0DFBC002101604160F7
:100ED00070470C20704730B5B0F10A0271F1000381
:100EE0004FEA900E4EEA817EB0EB0E0061EB91016D
:100EF0004FEA101E4EEA017E10EB0E0041EB11117D
:100F00004FEA102E4EEA016E10EB0E0041EB11215C
:100F10004FEA104E4EEA014E10EB0E0041EB11412C
:100F2000401841F100014FEAD00040EA41704FEA19
:100F3000D1014FEA810444EA907410EB800544EB40
:100F400001046D1944EB0404521BA3414FF000034C
:100F500048BF0A3200D530BD401C41F1000130BD10
:100F60002DE9F0470D4699469246044600F12408C3
:100F70000168880604D5E06921F01001216000E0D5
:100F80000120A84201DD471B00E00027A1697A1972
:100F900002EB0900081AA0612078C00602D420469E
:100FA000FFF758FC002608E0D4E901211AF80600F2
:100FB0009047206A401C761C20624E45F4DB207866
:100FC000C0060AD52046FFF745FC06E0D4E901211A
:100FD00030209047206A401C2062381EA7F101078C
:100FE000F4DC07E0D4E9012118F805009047206AF5
:100FF000401C2062281EA5F10105F3DC2046FFF706
:101000003FFC2078000602D50220BDE8F0870120D1
:10101000FBE72DE9FF4F0C461E464FF0FF378BB024
:10102000D2E90001DDF860800A908A46C1F30A55D2
:1010300005B93D46002108464FF00000BAF1000F07
:1010400000F4400005DA00EB80004FF4400101EAB3
:1010500050004FEA9059B9F1010F00DDB9460A98E6
:1010600050EA4A000ED044F61050A5F2FF35454331
:101070002F14B8F1000F1ED07542291E1EDDC9F1D4
:1010800000021CE0B8F1010F4FF0000001D0302148
:1010900003E0F24305E02154401CB042FBDB304644
:1010A0000022002121540B99C1F80880C1E90020D9
:1010B0000FB0BDE8F08FBD1B6D1CDEE74A4600DABD
:1010C000694206A800F03AFC06AB93E8070003ABC0
:1010D00083E8070050460A9925F038FD8DE807009F
:1010E000A0F500501F3800900398002D0ADD42F251
:1010F0001F014A460844002303A90390684625F0CF
:10110000A1FF09E0A0F500504A461F38002303A9BB
:101110000390684625F0ABFF8DE807000004000C43
:1011200003D04FF0FF30410800E01046B8F1000F47
:1011300003D00022009215461EE0751E05D4FFF76D
:10114000CAFE303262556D1EF9D5B34601220843FE
:1011500002D000227F1C04E02078302801D1002238
:101160007F1E002A099784D01DE0112D07DAFFF7B2
:10117000B2FE303262556D1C50EA0102F5D10843CF
:1011800002D00098C8B10EE00021681E05E0235C83
:10119000625C63542254401E491C8142F7DBAB461B
:1011A000A81B401E0990002004F80B000B98099A18
:1011B000C0F80880C0E9002B7AE711264FF000083C
:1011C00057E72DE9F04F88460446D21D22F007016B
:1011D00091B0D1E90001CDE90A0126F07FF802467D
:1011E0000B98C00F01D02D2007E02068810701D5A2
:1011F0002B2002E0202101EAC000032A099001D03F
:10120000072A05DB03464146204600F057FB0BE169
:101210002078800601D5E06900E00620B8F1650F6E
:10122000814606D0B8F1660F18D0B8F1670F70D1BB
:1012300031E00020B9F1110F009001DB112301E032
:1012400009F101030AAA01A90CA8FFF7E2FEDDE9F2
:101250000C70002609F10105834647E001204B464A
:1012600000904FF000470AAA01A90CA8FFF7D1FE91
:10127000DDE90DB00C995D46002610B909F10100B9
:101280000D18B9EB050003D4C0F1FF3609F10105D3
:10129000A5EB09002BE0B9F1010F01DA4FF00109CC
:1012A0000020B9F1110F0090484601DD112300E044
:1012B00003460AAA01A90CA8FFF7ABFEDDE90C70F2
:1012C0004D4600268346207800070AD4AB4500DA55
:1012D0005D4601A8012D04DD411911F8011C3029DA
:1012E00007D04F4502DA17F1040F04DA01208246D5
:1012F0000FE06D1EEEE7002F02DCED1B3E4403E025
:10130000781CA84200DD7D1CB81B00F1010A4FF0DB
:1013100000472078000703D4AA4501DB4FF0FF3ACD
:101320000021B7F1004F0DF143088DF8431024D090
:1013300002202B23002F01DA7F422D230A21021ED7
:10134000A0F1010000DC5FB197FBF1FC97FBF1F22B
:1013500001FB1C7C17460CF1300C08F801CDEEE7C0
:10136000A8F1010003702188090501D5452100E09D
:101370006521A0F1010800F8011C09980FA9A1EB53
:101380000807FF1D00B10120411901EBEA70A169B6
:101390003844081A401EA0612078C00602D42046B6
:1013A000FFF758FA099828B1D4E901219047206A3B
:1013B000401C20622078C00622D52046FFF74AFA5A
:1013C0001EE0002E04DBB34502DD01A8805D00E0D5
:1013D0003020D4E901219047206A401C2062761C0D
:1013E000AAF101005FEA000A0AD100F049FAC068D8
:1013F0000168405CD4E901219047206A401C2062CA
:10140000281EA5F10105DCDC07E0D4E9012118F86C
:10141000010B9047206A401C2062381EA7F101078B
:10142000F3DC2046FFF72CFA032011B041E6000060
:101430002DE9F04F04460D46D21D22F0070089B079
:10144000D0E900974846394625F048FF0246F80F94
:1014500001D02D2307E02068810701D52B2302E06E
:10146000202101EAC0038DF820300BB1012000E0FB
:101470000020032A824601D0072A04DB29462046A1
:1014800000F01CFA3FE12078800601D40D2500E031
:10149000E569C7F30A560D2D49DA00214FEA175BBB
:1014A00008464FF00000002F00F4400007DA00EB80
:1014B00080004FF4400100EBD07001EA600081151C
:1014C000012901DD4FF0FF3100224FEA850CBCF10C
:1014D000180F06D31346ACF118004FF08052C240EB
:1014E00003E04FF4801323FA0CF30CF10C0CBCF165
:1014F000200F04D3ACF1200C09FA0CF001E007FA3C
:101500000CF000294FF0004801DD18B90FE00ED1B2
:1015100040450CD319EB02095F4121B9404502D186
:101520009F4329EA0209BBEB175F00D0761C208895
:10153000000502D57B48784402E07A48784419389F
:1015400008AA302302F80A30037C0AF10101002EB8
:101550000AF1020A53546A4602DC4FF0300101E0FE
:101560004FF031014FF001088DF8001002D0A6F2C3
:10157000FF3603E059EA470100D06B4E002D02DC34
:101580002178090704D54FF002082E218DF80110AB
:10159000C44600210BE0C7F303433F01C35C491C71
:1015A0006D1E02F80830052908F1010801DA002D46
:1015B000F1DC00210CE000EB1973491C1B786D1E57
:1015C000082902F808304FEA091908F1010801DA80
:1015D000002DF0DC21688B0602D516E0A8F1010889
:1015E000E04505DD02EB080313F8013C302BF5D094
:1015F000B8F1000F09DD02EB080313F8013C2E2BB4
:1016000003D1090701D4A8F10108002D05DD3E2111
:1016100002F808106D1E08F10108407C002E02F847
:10162000080008F1010804DA2D20764202F80800CB
:1016300002E02B2002F808000A214FF47A7086425B
:1016400008F101080BDB96FBF0F3303302F80830A9
:1016500096FBF0F308F1010800FB136601E0642E2D
:101660000CDB642096FBF0F3303302F8083096FB75
:10167000F0F308F1010800FB136601E00A2E06DB17
:1016800096FBF1F0303002F8080008F1010896FBF3
:10169000F1F001FB1060303002F80800A16908F198
:1016A000010808EB050202EB0A00081AA061207885
:1016B000C00602D42046FFF7CDF8216A08AE01EB40
:1016C0000A00206204E0D4E9012116F8010B9047DA
:1016D000BAF1010AF7D22078C00602D52046FFF7FA
:1016E000B9F86E4609E016F8010B3E280FD0D4E990
:1016F00001219047206A401C2062B8F10108F2D213
:101700002046FFF7BDF809B00320BDE8F08F206A3E
:101710002844206203E0D4E90121302090476D1E67
:10172000EBD3F8E7B25E020002FCFFFF10B543699D
:1017300013B1AFF3008001E0FFF7C5F8012010BD41
:10174000127800F124010A7000224A700122EDE7AC
:1017500011684FF0FF32E9E710B5436913B1AFF3F9
:10176000008001E0FFF746F9012010BD128800F16A
:10177000240182840022C2840122EDE711684FF027
:10178000FF32E9E72DE9F04116460C46054600F028
:101790006FF8036893F80101012807D0FF2C12D8D5
:1017A000185D80B101202C70BDE8F081D3F80701ED
:1017B0003246214603F20713C7182846BC46BDE847
:1017C000F041002360474FF0FF30EDE72DE9F04195
:1017D0000646FFF72FFB8046454613E016B1E0684A
:1017E000B0420ED120682860D4E90101D8F8007019
:1017F00088472046FFF707F8D8F80000B842EBD139
:1018000000E025462C68002CE8D1BDE8F08110B539
:1018100000F014F9BDE8104000F00BB90048704723
:10182000981A042070477546FFF7F8FFAE4605008A
:101830006946534620F00700854618B020B5FEF7EC
:10184000EFFDBDE820404FF000064FF000074FF0DD
:1018500000084FF0000BAC46ACE8C009ACE8C0098A
:10186000ACE8C009ACE8C00921F007018D4670471B
:1018700010B500F005F8001D10BD00BFCD5A0200E4
:1018800000487047B81A0420034640688C46002878
:1018900018BF88423CBF03464068F8D31868184414
:1018A000884207D00CF1030020F00700001D411A08
:1018B000521A0146081D0A60FEF7A5BF2DE9F04146
:1018C0001F46044603260168072A01F4006004DB72
:1018D00008B116A505E016A503E008B115A500E0BE
:1018E00015A521F010002060A069C01EA0610FB1F5
:1018F000401EA0612046FEF7ADFF4FB1D4E90121A3
:1019000038469047206A401C2062C01C206206E0D6
:10191000206AFAE7D4E9012115F8010B9047761EF9
:10192000F8D22046FEF7ACFFBDE8F0814E414E00F4
:101930006E616E00494E4600696E66002DE9F04703
:10194000814616468AB0354878440DC88DE80D00AA
:1019500032487844801C03AC0DC884E80D0041F681
:101960009B300844372190FBF1F290FBF1F5A5F193
:10197000800501FB12041B3C02D56442012000E0FB
:101980000020DFF898A080460027FA44AAF1BE0A9A
:101990000EE0E0070AD03246684607EB4701012314
:1019A0000AEB810125F063FB8DE8070064107F1CC2
:1019B000002CEED1194F7F44AE3F19E0E80715D057
:1019C00007EB04100DF1180A90E80E008AE80E00EB
:1019D000C068F04201D1981908903246012306A947
:1019E00003A825F044FB03AB83E807006D10641CDB
:1019F000002DE3D14FF0010332466946B8F1000FE4
:101A000003A802D025F01EFB01E025F030FBC9E958
:101A10000001C9F808200AB0BDE8F087305B020079
:101A200010B50446AFF300802046BDE81040FEF735
:101A3000E1BC002801D0FFF7F3B9704710B50021D1
:101A400002A000F01AF8012010BD000053494741E0
:101A50004252543A2041626E6F726D616C2074651F
:101A6000726D696E6174696F6E00000010B500F0F0
:101A70001DF8BDE81040FFF7DCBF70B505460C4609
:101A80000A2000E06D1CFFF7C3F935B12878002863
:101A9000F8D102E0641CFFF7BBF914B120780028EC
:101AA000F8D1BDE870400A20FFF7B2B910B501289F
:101AB00005D0002103A0FFF7E0FF012010BD09A120
:101AC000F8E7000053494752544D454D3A204F75B1
:101AD00074206F662068656170206D656D6F727926
:101AE000000000003A2048656170206D656D6F72DE
:101AF0007920636F72727570746564000000000075
:101B000030B44FF0013C50F8042B51F8043BCCFAB0
:101B100052F4D51A20D1FCB950F8042B51F8043BEB
:101B2000CCFA52F4D51A17D1B4B950F8042B51F8A5
:101B3000043BCCFA52F4D51A0ED16CB950F8042BF0
:101B400051F8043BCCFA52F4D51A05D1002CDAD066
:101B500030BC4FF00000704729BAB1FA81F111F0A2
:101B60001801D1F120008440F2D1CA40CB4012F0DC
:101B7000FF0213F0FF0330BCD01A7047FEE70000ED
:101B800080B542F20003CEF200031A684EF6005C04
:101B900022F00102CEF2000C1A60DCF800204FF6B1
:101BA000F07E02EA0E024CF240239A4207D0DCF8A3
:101BB00000204CF2702302EA0E029A423BD142F21C
:101BC0000002CEF204021268002A5ED141F2000C3B
:101BD000C5F6004CDCF800306FF31F33B3F58A6FA5
:101BE0000FD0DCF8003040F283426FF31F33934292
:101BF00007D0DCF8002040F285436FF31F329A4291
:101C000043D144F60842C5F602020123136000BF27
:101C1000136833B1136823B1136813B11368002B31
:101C2000F6D144F60842C4F20262A2F16E42083ACA
:101C3000106010683DE0DCF800204FF6F0731A40A9
:101C40004DF220239A4220D148F6F072C4F200628D
:101C5000126840F286436FF31F329A421CBF002085
:101C600080BD44F60842C4F202620123136000BF43
:101C70001368002BDBD01368002BD8D01368002B1F
:101C8000D5D01368002BF3D1D1E743F20802C4F298
:101C900002020123136000BF136833B1136823B13C
:101CA000136813B11368002BF6D142F8080C52F8F0
:101CB000080C401AB0FA80F0400980BD704700005F
:101CC00072B600BFFEE7000042F65C20C2F20400DC
:101CD00000F0DABC42F64C30C2F2040000F0D4BC92
:101CE00042F6C430C2F2040000F0CEBC42F63C40E2
:101CF000C2F2040000F0C8BC42F6D420C2F20400D4
:101D000000F0C2BC42F6B440C2F2040000F0BCBC19
:101D1000002804BF012070472DE9F04182B004463D
:101D2000806F38B12168886880000ED48868C00050
:101D300015D548E0204600F0E1F90020E06784F87E
:101D40007400216888688000F0D588684FF6C072FA
:101D5000C5F6FF72104088608868C00033D44FF623
:101D6000C0728868C5F6FF7202F18052104000F11F
:101D70008050886040F20C00C2F20000006842F619
:101D800063528009C0F23E52A0FB02029009022277
:101D900002EB400001900198A8B100BF0198013802
:101DA0000190019878B1019801380190019850B1E3
:101DB000019801380190019828B1019801380190EB
:101DC00001980028EAD18868C00009D4A06F40F0CB
:101DD0001000A067E06F40F00100E067012000E024
:101DE00000208A68A36F02F0040203F01003D218E7
:101DF000A26F29D122F481720232A2678A6841F26D
:101E00000C0ED207C4F2026E3FD148F2000CC4F2AD
:101E1000022C614520D041F20003C4F202639942D2
:101E200020D1D4E901C3DEF80020013B9B0863F315
:101E30008302CEF80020DEF8FC224FEA9C4363F3D5
:101E40009542CEF8FC2220E042F01000A06701206D
:101E500002B0BDE8F08100BF0CF108031B68DB078E
:101E600005D012E0AEF104031B68DB070DD10EF5BF
:101E70003F73614508BF0CF54273D4F804C01A687B
:101E800022F4701242EA0C021A60AEF10C02914286
:101E900066D094F82420636C94F82C7043EA4232A4
:101EA000A368012F42EA030242EA074206D1236BEC
:101EB0000027CFF6FE7707EB43431A43636B23B14A
:101EC000A76B03F478733B431A43CB684CF21307B8
:101ED000CFF6F0773B401A43CA608A688B6802F0FD
:101EE000040203F00803D21840F0C38048F2000354
:101EF000C4F20223CB1AE76B227F18BF012307FA33
:101F000003F343EA8232CB6844F20307BB431A432C
:101F1000CA60E2684AB10B6F43F6FF77BB431A43CE
:101F20000A670A6F42F000420A6794F854300A695F
:101F3000012B40F095804FF61E03CFF600431A4068
:101F4000D4E91637D4E918653A4342EA0342A36E4E
:101F500032432A4342EA930242F0010282E000BF88
:101F600094F82410227F4B0343EA8232D4E904839D
:101F7000656C28F00046B8F1FF3FC8BF4FF400166B
:101F80001A4394F84070002D18BF42F48052324337
:101F900094F82C3042EA470C012B0AD1002900F0BA
:101FA000A580A16F41F02001A167E16F41F001011F
:101FB000E167616B29B1A26B01F4E07111434CEA56
:101FC000010CDEF8001048F20D02CFF6DE7211406F
:101FD00041EA0C01CEF80010216A21B1DEF8382068
:101FE0001143CEF83810E16E21B1DEF838201143EC
:101FF000CEF8381094F85410012909D104F158038F
:102000000ECBA56E11431943294341F0010100E0B5
:102010000021DEF804204FF60243CFF2FF731A408E
:102020001143CEF80410DEF80810D4E9122321F091
:1020300007011143CEF80810DEF80810B8F5001FAC
:1020400021F0700141EA0311CEF808101CD0B8F15C
:10205000000F2AD1DEF81C1061F00F0123E000BF51
:1020600022F001020A610A69236D22F070421A43CC
:102070000A6122690B6B012A23F00F0202BFA36AD7
:10208000013B1A430A631BE0DEF81C10A16A1C2204
:1020900002EB8101D4F8882001F01C016FF00F03DE
:1020A00003FA01F11143CEF81C10DEF800104FF6D0
:1020B000F372C8F23F321140614509D10021E16756
:1020C000A16F012262F30101A16702B0BDE8F081B6
:1020D000A06F40F0100020F00200A067E06F40F019
:1020E0000100E067012002B0BDE8F0814CF4803CC3
:1020F000616B00297FF45FAF63E7000070B5B8B093
:10210000054602A8002640F600040830B821CDE9B3
:102110003666C4F20224FEF706FB286804F5F04197
:10212000884201D038B070BD4FF4004002904FF4A7
:1021300080402B9002A8039602F04AFB002818BFAB
:10214000FFF7BEFD40F68C40C4F20260016841F426
:1021500080610160016801F4806101910199016869
:1021600041F004010160006833A900F0040001900F
:1021700001980420339003203490002035902046AD
:1021800000F088FE38B070BDCB0704BF0120704757
:1021900010B54FF68073C7F6FF7311EA030C4FEAD0
:1021A000F20418BF4FF0010C032C0AD840F2000EC5
:1021B000C7F6FF7EDFE804F01502081011EA0E03EF
:1021C0000FD0012010BD00BF0EF57F430B401CBF98
:1021D000012010BD05E000BFBCF1000F1CBF0120B5
:1021E00010BD00684161816821F0180111438160D0
:1021F000002010BD002804BF0120704710B5044620
:10220000407F20B900202077204600F031F80220DE
:102210006077207950B1D4E902122046FFF7B4FF6D
:1022200000281CBF012010BD0AE000BF206841F655
:10223000B751C0F2C1414161816821F0180181604C
:102240006079002814BF20694FF0FF302168D4E97D
:1022500005230861886820F0600010438860886862
:1022600020F080001843886001206077002010BDB6
:10227000006843F20001C4F20201884218BF7047AF
:1022800081B040F68840C4F20260016841F4805198
:102290000160006800F480500090009801B0704721
:1022A00090F85820012A4FF002024DD0F0B501EB12
:1022B000410380F8592000EBC303D3E90B42D3E973
:1022C0000D5603F1280CDB6B120442EA0652A4F10E
:1022D000090E42EA43522F06BEF1020F38BF05F045
:1022E0007F473A430368002942EA040112D0DA69C1
:1022F0004FF6F074C0F2CC0422401143D961DCF8EF
:102300000010BEF1010F19619CBF25F07F411962D9
:1023100012E000BF5A6A4FF6F074C0F2CC042240BB
:1023200011435962DCF80010BEF1010F996103D826
:10233000416B21F07F4199620121002280F8591000
:1023400080F85820BDE8F04010467047002804BFD0
:102350000120704710B5044690F8590028B90020B4
:1023600084F85800204600F031F8022084F8590023
:1023700094E80340D4F80CC003684FF6BF72CFF660
:10238000F8721A40E369114319430160416B40F24E
:1023900007129143A26941EA0E0111434163016CA6
:1023A0004FF6FF72914341EA0C010164416BD4E99D
:1023B000042321F4401141EA025141EA43514163AF
:1023C00000200121E06584F8591010BD00684BF22F
:1023D0000001C4F20201884218BF704781B040F684
:1023E0008840C4F20260016841F480210160006805
:1023F00000F480200090009801B0704700284FF052
:10240000010218BF002901D11046704790F85420EE
:10241000012A3BD1B0B5D1E900E3D1E9022C002477
:10242000CFF6FF7404EB0E44A2EB420E1504002A13
:1024300044BF44F000544FEA0E454FF0805202EA88
:10244000D302002B48BF5B42006844EA020E45EA13
:10245000030242650A69A2EB4203110402F0004440
:10246000002A48BF19044FF0804202EA5C024EEA9B
:102470000405BCF1000F48BFCCF1000C2A4341EA2F
:102480000C01816582640020B0BD00BF40218165E0
:102490000021012280F84C101046704700285BD0C4
:1024A000436F002B58D080B590F85410D0F800E05E
:1024B0000129DEF814C004D002294FD11CF4803168
:1024C0004CD090F8541001293AD190F84C100129C1
:1024D0004FF002013BD0012280F84C2080F85410CC
:1024E0001973002181651961DEF8141041F4BA41B5
:1024F000CEF81410416E29B1DEF8141041F40071C9
:10250000CEF81410006F28B1DEF8140040F400502B
:10251000CEF8140018680022016ACFF601024908BB
:1025200061F3596261F39A624FF6FF7120EA01018B
:10253000CEF800104FF6FC7108401044CEF87C0035
:10254000DEF81400002140F00100CEF81400BDE8D0
:1025500080400846704700BF0120704740218165D8
:10256000002180F84C100121BDE8804008467047EA
:10257000B0B5044600F0BEFD002C04BF0120B0BD84
:10258000054694F85400022824D12068416941F09E
:1025900004014161052084F8540000BF21680869E6
:1025A00080041FD400F0A6FD401B0628F6D3A06DC2
:1025B00040F01000A065032084F8540094F8500007
:1025C00000064FF0010001D5616F0873002184F807
:1025D0004C10B0BD2020A0650120002184F84C10D3
:1025E000B0BD00BF4869012240F0020048610420EC
:1025F00084F854004FF4FE40C86084F8542094F8E6
:10260000500000064FF00000E0D5636F1A73886435
:10261000002184F84C10B0BD80B190F8541002290C
:102620000AD1042180F85410006842F20402416982
:1026300011434161002070472021816501207047CE
:10264000024600284FF0010008BF7047CB0612D5A4
:10265000136840F6FF7223EA020203F57B63C3F3BB
:10266000C41301F0110198401129516814BF21EAE7
:10267000000008435060002070470000806D7047E4
:1026800090F854007047000010B5044600680C2212
:10269000034600F57B6162F30B03C1F3C4111A68B2
:1026A00022FA01F1C90700F0C5800169490544BF5C
:1026B00041695FEA415147D40169090544BF416955
:1026C0005FEA015148D40169C90444BF41695FEA26
:1026D000C14149D40169490444BF41695FEA4141AC
:1026E0004AD40169890544BF41695FEA81514BD4ED
:1026F0000169890444BF41695FEA81414ED401699F
:10270000C90544BF41695FEAC15163D4A06D002887
:1027100000F090802068416941F002014161012090
:1027200084F8540094F85010090644BF616F087390
:10273000A16E0020002984F84C0008BF10BD20467F
:10274000BDE81040084700BF4FF48061C160A16D33
:1027500041F00101A165AFE74FF40061C160A16DD7
:1027600041F00201A165AEE74FF48051C160A16D57
:1027700041F00401A165ADE74FF48041C160A16D56
:1027800041F00801A165ACE74FF40071C160616ED2
:102790000029ADD0204688472068A9E74FF40051B2
:1027A000C16094F8541004291ED1416921F40051EC
:1027B0004161416941F002014161012184F85410F5
:1027C00094F85020120603D5626F117300218164C2
:1027D000E16EAEE794F85010090611D4816CD1B9BE
:1027E00004F1540115E000BF052184F85410216F55
:1027F00000293FF484AF2046884720687FE700BF68
:10280000C16F41B9816C31B9012184F85410616FF5
:102810000C3101220A704FF44071C160216E00201A
:10282000002984F84C001CBF20468847A06D002872
:102830007FF470AF10BD000070B5044600F05AFC84
:10284000002C04BF012070BD00210546206884F8DB
:102850004C10022184F85410416941F00601416195
:1028600020684169C9070BD000F044FC401B0528D3
:10287000F6D9012003221021A16584F8542070BDEF
:10288000216A426904F1100522F4430211434161B7
:10289000E36926CD1A4340F24F0E1143C5F2020EF2
:1028A00040F24F6C704541EA0503C5F2020C1DDC95
:1028B00040F24F45C4F20205A84233DC40F24F25F6
:1028C000C4F20205A84257DC40F24F15C4F20205DB
:1028D000A84200F395805025C4F20205A84200F0FA
:1028E000E980D025C4F20205E2E000BF40F24F4586
:1028F000C5F20205A8422DDC40F24F25C5F20205C3
:10290000A8424BDC40F24F15C5F20205A84200F385
:1029100083805025C5F20205A84200F0CB80D02567
:10292000C4E000BF40F24F65C4F20205A84245DC96
:1029300040F24F55C4F20205A84277DC40F2504500
:10294000C4F20205A84200F0B58040F2D045C4F2BE
:102950000205ADE0604543DC40F24F55C5F202058B
:10296000A8426FDC40F25045C5F20205A84200F0D3
:10297000A18040F2D04599E040F24F35C4F2020503
:10298000A84269DC40F25025C4F20205A84200F0DA
:10299000918040F2D025C4F2020589E040F24F3523
:1029A000C5F20205A84263DC40F25025C5F20205DB
:1029B000A84200F07F8040F2D02577E040F24F75CA
:1029C000C4F20205A8425DDC40F25065C4F2020583
:1029D000A8426FD040F2D065C4F2020568E000BFA3
:1029E00040F24F75C5F20205A84257DC40F250652F
:1029F000C5F20205A8425DD040F2D06556E000BFA6
:102A000040F25015C4F20205A84253D040F2D0154E
:102A1000C4F202054CE000BF40F25015C5F20205B9
:102A2000A84247D040F2D01540E000BF40F25055D8
:102A3000C4F20205A8423DD040F2D055C4F20205CE
:102A400036E000BF40F25055C5F20205A84231D031
:102A500040F2D0552AE000BF40F25035C4F20205E2
:102A6000A84227D040F2D035C4F2020520E000BFD2
:102A700040F25035C5F20205A8421BD040F2D035D5
:102A800014E000BF40F25075C4F20205A84211D014
:102A900040F2D075C4F202050AE000BF40F2D075E2
:102AA000C5F20205A84205D040F25075C5F20205F4
:102AB000A84211D1D4E909514FF07C76E26A06EBC5
:102AC00001514FF47C7606EB051501F07C7105F49D
:102AD0007C75114329430B43016C251D01F08021B6
:102AE0001943016426CD236B01F07F011143B5F535
:102AF000007F43EA010323D0B5F5806F40F00E81DB
:102B0000704521DC40F24F41C4F20201884237DCBB
:102B100040F24F21C4F2020188425BDC40F24F11C7
:102B2000C4F20201884200F399805021C4F20201EC
:102B3000884200F0F180D021C4F20201E6E000BF3B
:102B400043F40073EAE000BF40F24F41C5F20201D6
:102B500088422DDC40F24F21C5F2020188424BDC55
:102B600040F24F11C5F20201884200F383805021E8
:102B7000C5F20201884200F0CF80D021C4E000BF3E
:102B800040F24F61C4F20201884245DC40F24F51ED
:102B9000C4F20201884277DC40F25041C4F20201E3
:102BA000884200F0B98040F2D041C4F20201ADE0A9
:102BB000604543DC40F24F51C5F2020188426FDCB0
:102BC00040F25041C5F20201884200F0A58040F277
:102BD000D04199E040F24F31C4F20201884269DCF1
:102BE00040F25021C4F20201884200F0958040F288
:102BF000D021C4F2020189E040F24F31C5F2020156
:102C0000884263DC40F25021C5F20201884200F0A4
:102C1000838040F2D02177E040F24F71C4F202018C
:102C200088425DDC40F25061C4F20201884273D0F8
:102C300040F2D061C4F2020168E000BF40F24F717F
:102C4000C5F20201884257DC40F25061C5F2020130
:102C5000884261D040F2D06156E000BF40F250118E
:102C6000C4F20201884257D040F2D011C4F20201EE
:102C70004CE000BF40F25011C5F2020188424BD037
:102C800040F2D01140E000BF40F25051C4F20201C6
:102C9000884241D040F2D051C4F2020136E000BF78
:102CA00040F25051C5F20201884235D040F2D05175
:102CB0002AE000BF40F25031C4F2020188422BD01A
:102CC00040F2D031C4F2020120E000BF40F25031A6
:102CD000C5F2020188421FD040F2D03114E000BF9B
:102CE00040F25071C4F20201884215D040F2D07116
:102CF000C4F202010AE000BF40F2D071C5F2020145
:102D0000884209D040F25071C5F20201884208BFE2
:102D100043F4806302E000BF43F48063416C43F2FC
:102D20008012C3F6C042114019434164002160453E
:102D3000816411DC40F24F71C4F2020188421BDC55
:102D400040F25061C4F2020188422DD040F2D061BD
:102D5000C4F2020126E000BF40F24F71C5F2020149
:102D6000884215DC40F25061C5F2020188421BD056
:102D700040F2D06114E000BF40F25071C4F2020191
:102D8000884211D040F2D071C4F202010AE000BFC3
:102D900040F2D071C5F20201884205D040F2507174
:102DA000C5F20201884202D10021416581650021FE
:102DB000C167606B012220650020A16584F8542062
:102DC00070BD000000284ED090F84CC0BCF1010F3F
:102DD00004BF022070474FF0010C80F84CC090F8FF
:102DE00054C0BCF1010F39D110B54FF0020C80F87E
:102DF00054C04FF0000CC0F858C0D0F800C0D0F854
:102E000064E0DCF84840BEF1000FC3EA0403CCF8EC
:102E100048304FF4FE43CCF80C30CCF84C10CCF8D2
:102E20005020DCF8141041F4BA41CCF8141005D04D
:102E3000DCF8141041F40071CCF81410006F28B1C4
:102E4000DCF8140040F40050CCF81400DCF8140056
:102E500040F00100CCF81400002010BD4021816535
:102E6000002180F84C10012070470000B0B50446E6
:102E700000F040F9054640F20000C2F20000007880
:102E8000611C18BF044400BF00F034F9401BA0428D
:102E9000FAD3B0BD2DE9F04F82B00F68002F00F0DB
:102EA0001F81804647F67F70C0F22F0000EA98200D
:102EB000002200234FF0010900260025C4F202621F
:102EC000C4464FF0000A009013E000BFC8464FF020
:102ED00001090022C4F202620F680AF1010A37FAFE
:102EE0000AF005F1020506F1040603F1080300F0FB
:102EF000F78009FA0AF417EA0400EDD09045019032
:102F000026D0D1F804E04EF01002122A5CD16FF006
:102F1000030000EA5A0206F01C0442440F20D2F8D3
:102F200020E000FA04F708692EEA070700F00F0016
:102F3000A04038431062DCF800000322D1F804E01E
:102F4000AA4090430EF00302AA40104345E000BFA0
:102F500010684F68A04307F0010747F2EC4407FAF6
:102F60000AF7C0F60204384304EBCA071060D7F82A
:102F700004B06FF0030054F83AC000EA5B071C206D
:102F8000674400EA8B04D7F820E00F2000FA04F22F
:102F90000B202EEA020200FA04F422433A62DCF823
:102FA00000204FEA4B07032000FA07F40220A24357
:102FB00000FA07F73A43CCF80020D1F804E0BEF15C
:102FC000120F10D93EE000BFDCF800000322AA4037
:102FD00090430EF00302AA401043D346CCF8000001
:102FE000BEF1120F2ED809FA0EF010F0061F25D0F0
:102FF0004FEA4B070322C146DCF8080002FA07F843
:10300000CA6820EA0800BA401043CCF8080001243E
:10301000DCF8040004FA0BF290434FEA1E1202FAA5
:103020000BF21043BEF1030FCCF804003FF44EAF97
:103030006FEA0804C8464FF0010908E0BEF1030F2B
:103040003FF447AF4FEA4B070320B840C443DCF8D6
:103050000C008A682040BA4010435FEACE02CCF8E8
:103060000C007FF536AF42F2000E2AF00300C4F2E6
:10307000026E7044026E03F018070F24BC40A24396
:10308000009C04FA07F73A430266DEF800B00198A4
:103090004A684BEA0007D40258BF2BEA0007CEF873
:1030A0000070DEF804B094024BEA000758BF2BEA28
:1030B0000007CEF80470DEF884B094034BEA0007F2
:1030C00058BF2BEA0007CEF88470DEF88040D203A8
:1030D00044EA000758BF24EA0007CEF88070F8E6FB
:1030E00002B0BDE8F08F00001823002A08BF282393
:1030F000C150704745F2F050C2F2040000687047BA
:1031000090F84120202A03D190F84020012A01D1D3
:1031100002207047242280F841200268136823F0BF
:1031200001031360136823F4805313601368194379
:103130001160116841F001011160202180F84110F7
:10314000002180F8401008467047000090F84120A8
:10315000202A03D190F84020012A01D10220704793
:10316000242280F841200268136823F001031360D1
:10317000136823F4706343EA01211160116841F080
:1031800001011160202180F84110002180F84010D9
:103190000846704790F84120202A03D190F840203B
:1031A000012A01D102207047242280F841200268C0
:1031B0000029136823F001031360136823F0807360
:1031C00008BF03F180731360116841F001011160C1
:1031D000202180F84110002180F8401008467047F7
:1031E0000268436B91691268002B08BF704718474B
:1031F000002804BF0120704710B5044690F8410034
:1032000028B9002084F84000204600F01BF9242053
:1032100084F8410094E80910E2680168012A21F06D
:103220000101016023F070610161816821F40041B6
:10323000816003D14CF40041816009E04CF4044109
:10324000022A816004D1416841F4006103E000BFBB
:10325000416821F400614160416804F1100341F0CC
:10326000007141F400414160C16821F40041C16036
:103270000ECB114341EA0321E269C160216A114387
:103280000160016841F001010160002020216064BB
:1032900084F84110206384F8420010BD2DE9F04706
:1032A00082B0044690F84100202803D194F84000F1
:1032B000012803D1022002B0BDE8F08701201F469B
:1032C0001546884684F84000FFF714FF216806463B
:1032D0008A69120425D4212084F84100102084F842
:1032E000420000206064656267856063608D40F223
:1032F000000AB0F5807F49F60000CFF60040C0F22A
:10330000FF1A27D351F8042F43466FF39F2302EA95
:1033100000070AF50055FF2229E000BF8869000474
:10332000D9D520461921324605F00AF800286FD178
:10333000FFF7E0FE801B21681A28EFD3886900049C
:10334000ECD5606C40F020006064202084F84100DF
:1033500001206EE0628D434651F8045F6FF39F23B6
:10336000D7B243EA074705EA00030AF590353B4325
:103370002B430B602285618D0A9F002942D06FF399
:103380009F284FF0FF0900F5806510E0618D2068EF
:10339000218550F8042FC9B22A4042EA01414FF07A
:1033A000007241EA080111430160608D50B320466C
:1033B0003946324605F02EF950BB606A226810F893
:1033C000011B91626062608D01386085208D01383B
:1033D0002085618D0029E8D00004E6D120468021B7
:1033E00000223B46009605F05BF888B9608DB0F589
:1033F000807FCBD32068A4F8289050F8041F524651
:103400002940CEE720463946324605F0C5F818B1C6
:10341000012002B0BDE8F08720682021C161426828
:103420004EF60003CFF600631A404260002084F895
:103430004110002184F8421084F8401002B0BDE829
:10344000F0870000F0B5B7B00446002502A8C021FF
:103450003695CDE93455CDE93255FDF764F920684C
:1034600042F60001C4F2006188423BD045F60001FB
:10347000C4F20001884240F0C38080200024029002
:1034800002A8039401F0A4F9002818BFFEF718FC65
:1034900040F68C45C4F20265286832A940F020004D
:1034A0002860286800F020000190019803203290E5
:1034B0001220CDE933040420369040F60000C4F217
:1034C000022000F540603594FFF7E4FC286940F4E1
:1034D00080002861286900F480000190019837B0CD
:1034E000F0BD00BF4FF48070029002A8039501F078
:1034F0006FF9002818BFFEF7E3FB40F68C45C4F2D5
:1035000002652868002740F004002860286840F21F
:10351000505600F0040001900198032032901220D0
:1035200033900420369040F60000C4F2022032A905
:10353000CDE93477C4F20206FFF7ACFCE869132149
:1035400040F08000E861E86942F6C43500F0800090
:103550000190019806F18000C2F204054FF48062E8
:1035600085E8830005F10C0008238CC00120C5E923
:103570000870C5E90A072846C5E90677C5E90C774A
:10358000FFF75AF9002818BFFEF79AFB28461021CA
:10359000A563EC65FFF754F8002818BFFEF790FB11
:1035A00042F64C351220C2F204050021C5E9006044
:1035B00001204FF40022C5E90810C5E90A01284698
:1035C000C5E90211C5E90412C5E90611C5E90C11E6
:1035D000FFF732F9002818BFFEF772FB28461021CA
:1035E000E563EC65FFF72CF8002818BFFEF768FBD1
:1035F00058200521002200F0D9F8582000F0C4F826
:1036000037B0F0BD40F20041C4F203010A68D207AE
:103610001CBF012070470A6822F0040210430860B2
:103620000020704740F20041C4F20301086840F0F6
:10363000010200200A60704740F2000045F2F0519C
:10364000C2F20000C2F2040100780A681044086067
:103650007047000080B542F20000C4F20200016829
:1036600041F480710160032000F0CCF801F0E8FD26
:1036700040F62041C4F20261096847F2D44201F0E9
:103680000F01C0F60202515CC84040F20C01C2F2C8
:1036900000010860042003F08DFC0F2000F008F802
:1036A00000281CBF012080BD00F054F8002080BD20
:1036B000B0B588B040F69C41C4F202610A68044685
:1036C00042F010020A60096802A801F0100102919C
:1036D000029901A901F018FD01F052FD4DF6836138
:1036E000C4F21B31A0FB01014FF0FF3000EB914110
:1036F00042F6B07041F20003C2F2040040F2E73239
:10370000C4F200030025C0E90031C0E9025205619E
:1037100003F04AFD0546B0B942F6B070C2F20400AB
:1037200003F09EFD054670B90F2C0BD831202146C1
:103730000022002500F03AF840F20400C2F2000036
:10374000046000E00125312000F01EF8284608B092
:10375000B0BD000080B582B040F69440C4F2026073
:10376000016841F004010160006800F0040001906C
:10377000019800F039F96FF001000F21002202B02A
:10378000BDE8804000F012B8002848BF70471C22F6
:1037900000F01F0102EAD000012202FA01F14EF20C
:1037A0000012CEF2000281507047000010B54EF6B4
:1037B0000C5CCEF2000CDCF80030C3F3022E8EF06D
:1037C0000704042C28BF0424BEF103034FF0FF3E7E
:1037D00038BF00230EFA04F4A14399400EFA03F314
:1037E0009A43114300F00F0200F160430901043ACB
:1037F00003F564436244002848BF02F10C031970CA
:1038000010BD00004EF60C51CEF200010A684FF6D2
:10381000FF031A4060F30A2242F0806040F0FD701E
:103820000860704740F20C01C2F200010A6841F2E0
:103830005973CDF2B71340F63C01C4F20261A2FB0A
:10384000032351F8342C00284FEA93301CD042F067
:103850000202023041F8342C0A68920732D401285F
:1038600030D00A6892072FD402282DD00A68920718
:103870002CD403282AD00A689207A0F1040226D487
:1038800004281046E8D122E022F00202023041F87A
:10389000342C00BF0A68920714D5012812D00A6898
:1038A000920711D502280FD00A6892070ED5032877
:1038B0000CD00A689207A0F1040208D5042810462B
:1038C000E8D104E0421E02E0821E00E0C21E002099
:1038D000002A08BF0320704740F60C0CC4F2026CAB
:1038E000DCF8302002F4403282420BD1B0F1011FEB
:1038F00068D3DCF8000040F48020CCF80000002001
:10390000704700BFDCF80020B0F5803F22F4E022D1
:1039100042EA000240F20C0088BF42F48022CCF858
:103920000020C2F20000006841F25972CDF2B712D5
:10393000A0FB0202900B0346DCF80010B3F1FF324B
:1039400018BF012209041ED4591C1CD0DCF8001039
:10395000002B1A4618BF0122090414D49BB1DCF8CD
:1039600000105A1E18BF012209040CD4012B0AD0E2
:10397000DCF800109A1E18BF0122090403D4022BA0
:10398000A3F10403D8D112B3DCF83010421C0904AF
:1039900016D4AAB1DCF83010090412D488B1DCF8CE
:1039A0003010090410D401280ED0DCF83010021FAA
:1039B000090402D402281046E6D1901C10B906E092
:1039C000104620B10020704701380028FAD10320AA
:1039D0007047000040F62C00C4F20260016841F01C
:1039E000010101607047000040F61000C4F202605F
:1039F000016841F0804101607047000040F610000E
:103A0000C4F20260016841F000510160704700009B
:103A100040F63C00C4F20260006800F44030704799
:103A200040F62800C4F20260016841F00101016023
:103A300070470000B0B540F6284EC4F2026EDEF8C2
:103A40000C50DEF80030DEF80010DEF80020DEF862
:103A50001040D206E40804EAE272C1F303216FF3D6
:103A60005F3200EE102A03F00303B8EE400A6FF352
:103A70005F25012B01F1010C66D0032B18BF022B2F
:103A800062D101EE10CADEF80C10B8EE411A9FEDBB
:103A90004D2A6FF35F2182EE011A02EE101A9FED9C
:103AA0004A3AB8EE422A20EE030A30EE020AB7EE96
:103AB000002A30EE022ADEF8001021EE020AC903C5
:103AC00071D5DEF80C10B7EE002AC1F3462101EEE5
:103AD000101AB8EE411A31EE021A80EE011ABCEE4D
:103AE000C11A11EE102A0260DEF80010890360D5B9
:103AF000DEF80C10B7EE002AC1F3064101EE101AF1
:103B0000B8EE411A31EE021A80EE011ABCEEC11A6B
:103B100011EE102A4260DEF8001049034FD5DEF89E
:103B20000C10B7EE002AC1F3066101EE101AB8EED0
:103B3000411A31EE021A80EE010ABCEEC00A10EE04
:103B4000101A8160B0BD00BF5EF8201C090203D4CA
:103B5000DEF8CC100B0401E05EF8203C47F26C521A
:103B6000190FC0F6020202EB810102EE10CA91EDBC
:103B7000001AB8EE422AB8EE411A9FED133A81EED0
:103B8000022A01EE105A20EE030AB8EE411A30EE76
:103B9000010AB7EE001A30EE011ADEF8001021EE2D
:103BA000020AC9038DD400220260DEF800108903E6
:103BB0009ED400224260DEF800104903AFD40021F9
:103BC0008160B0BD0024744B00000039B0B540F6F0
:103BD0002C4EC4F2026EDEF81050DEF80030DEF833
:103BE0000010DEF80020DEF81440D206E40804EAF3
:103BF000E272C1F303216FF35F3200EE102A03F08B
:103C00000303B8EE400A6FF35F25012B01F1010CAD
:103C100066D0032B18BF022B62D101EE10CADEF86A
:103C20001010B8EE411A9FED4D2A6FF35F2182EE1E
:103C3000011A02EE101A9FED4A3AB8EE422A20EE1F
:103C4000030A30EE020AB7EE002A30EE022ADEF84E
:103C5000001021EE020AC90371D5DEF81010B7EE8C
:103C6000002AC1F3462101EE101AB8EE411A31EED6
:103C7000021A80EE011ABCEEC11A11EE102A02607F
:103C8000DEF80010890360D5DEF81010B7EE002AC8
:103C9000C1F3064101EE101AB8EE411A31EE021AD4
:103CA00080EE011ABCEEC11A11EE102A4260DEF855
:103CB000001049034FD5DEF81010B7EE002AC1F30B
:103CC000066101EE101AB8EE411A31EE021A80EECA
:103CD000010ABCEEC00A10EE101A8160B0BD00BF30
:103CE0005EF8241C090203D4DEF8C8100B0401E0BE
:103CF0005EF8243C47F26C52190FC0F6020202EB48
:103D0000810102EE10CA91ED001AB8EE422AB8EE17
:103D1000411A9FED133A81EE022A01EE105A20EE6D
:103D2000030AB8EE411A30EE010AB7EE001A30EE7F
:103D3000011ADEF8001021EE020AC9038DD4002218
:103D40000260DEF8001089039ED400224260DEF893
:103D500000104903AFD400218160B0BD0024744B32
:103D600000000039B0B540F6304EC4F2026EDEF805
:103D70001450DEF80030DEF80010DEF80020DEF827
:103D80001840D206E40804EAE272C1F303216FF39B
:103D90005F3200EE102A03F00303B8EE400A6FF31F
:103DA0005F25012B01F1010C66D0032B18BF022BFC
:103DB00062D101EE10CADEF81410B8EE411A9FED80
:103DC0004D2A6FF35F2182EE011A02EE101A9FED69
:103DD0004A3AB8EE422A20EE030A30EE020AB7EE63
:103DE000002A30EE022ADEF8001021EE020AC90392
:103DF00071D5DEF81410B7EE002AC1F3462101EEAA
:103E0000101AB8EE411A31EE021A80EE011ABCEE19
:103E1000C11A11EE102A0260DEF80010890360D585
:103E2000DEF81410B7EE002AC1F3064101EE101AB5
:103E3000B8EE411A31EE021A80EE011ABCEEC11A38
:103E400011EE102A4260DEF8001049034FD5DEF86B
:103E50001410B7EE002AC1F3066101EE101AB8EE95
:103E6000411A31EE021A80EE010ABCEEC00A10EED1
:103E7000101A8160B0BD00BF5EF8281C090203D48F
:103E8000DEF8C4100B0401E05EF8283C47F26C52E7
:103E9000190FC0F6020202EB810102EE10CA91ED89
:103EA000001AB8EE422AB8EE411A9FED133A81EE9D
:103EB000022A01EE105A20EE030AB8EE411A30EE43
:103EC000010AB7EE001A30EE011ADEF8001021EEFA
:103ED000020AC9038DD400220260DEF800108903B3
:103EE0009ED400224260DEF800104903AFD40021C6
:103EF0008160B0BD0024744B0000003980B584B0EF
:103F0000024647F6FF7300209B1A70EB0103C0F2D4
:103F10006D80D2F17F0370EB0103C0F2A380013A00
:103F200061F10001D2F13F034FF0000373EB010197
:103F3000C0F04084DFE812F040001A023E04C201E3
:103F40003E043E043E04DC013E043E043E043E04C6
:103F50003E043E043E0434023E043E043E043E045D
:103F60003E043E043E043E043E043E043E043E0441
:103F70003E043E043E04F6013E043E043E043E047C
:103F80003E043E043E043E043E043E043E043E0421
:103F90003E043E043E043E043E043E043E043E0411
:103FA0003E043E043E043E043E043E043E043E0401
:103FB0003E043E043E04500240F60040C4F202605B
:103FC000D0F8E01001F00301012900F0F982002986
:103FD00000F0F0820268022903D112F4806240F0FE
:103FE0009083D0F8F00003294BE200BF4FF6FF7337
:103FF000C0F23F039B1A70EB010363DB4FF6FF73C4
:10400000C0F203039B1A4FF0000C7CEB010380F21B
:1040100081804FF6FF73C0F20F039B1A7CEB010304
:10402000C0F2EA8082F480230B4300F0F58182F431
:104030000022114340F0BE8340F60040C4F202600B
:10404000D0F8E410026801F44051920440F1288352
:10405000002940F0258346F60040C0F2DC2004B081
:1040600080BD00BF40F2FF339B1A4FF0000C7CEB89
:10407000010380F2738041F6FF739B1A7CEB01030E
:10408000C0F2D88082F480630B4300F0DB8182F4BD
:104090000062114340F08E8340F60040C4F202609B
:1040A000D0F8E81011F4407100F0A682D0F8F020AA
:1040B000B1F5807F40F0838112F0006240F003830D
:1040C0007DE100BF6FF07E439B1A4FF0000C7CEB4C
:1040D000010380F273806FF078439B1A7CEB01033D
:1040E000C0F2C68082F000730B4300F0D38182F0EF
:1040F0008062114340F05E8340F60040C4F20260EB
:10410000D0F8E410C1F30151DFE811F05A02760251
:10411000B302BC0282F400430B4300F0C98182F475
:1041200080330B4300F0DE8182F40032114340F013
:10413000418340F60041C4F20261D1F8E800C0F3C7
:104140000242042A00F25B824BF68030DFE812F074
:10415000DE017802CC023203A20200BF82F08003AB
:104160000B4300F0D98182F480730B4300F0F0819F
:1041700082F40072114340F01D8340F60040C4F207
:104180000260D0F8E81011F4406100F03582D0F8F8
:10419000F020B1F5806F03D112F0006240F09382FD
:1041A0000268B1F5006F03D112F4806240F0A98279
:1041B000D0F8F000B1F5406F63E100BF82F48003F6
:1041C0000B4300F0D78182F400030B4300F0E6813B
:1041D00082F08072114340F0ED8240F60040C4F25C
:1041E0000260D0F8E010C1F30141DFE811F0D10125
:1041F000E9014902050200BF82F480130B4300F07D
:10420000E58182F40012114340F0D48240F6004070
:10421000C4F20260D0F8E410490400F11182D0F831
:10422000E010C1F38161DFE811F0DD012D0224020D
:10423000E70100BF82F400530B4300F0E98182F4F0
:104240008042114340F0B68240F60041C4F2026160
:10425000D1F8E400C0F30222042A00F2D0814BF628
:104260008030DFE812F03B02E701ED01A7025502C2
:1042700082F000630B4300F0E98182F08052114329
:1042800040F0988240F60041C4F20261D1F8E800A3
:10429000D1F8F020920700F4004202D5002A00F085
:1042A000CC80D1F8F00000014FF0000040F1828294
:1042B000002A00F07F82D1F8F00006E240F60040CC
:1042C000C4F20260D0F8E01001F03001102900F0D3
:1042D0007781002900F05C810268202903D112F463
:1042E000806240F00E82D0F8F0003029C9E000BFB3
:1042F00040F60040C4F20260D0F8E01001F0C001C6
:10430000402900F05D81002900F042810268802987
:1043100003D112F4806240F0F481D0F8F000C0299B
:10432000AFE000BF40F60041C4F20261D1F8E800FE
:1043300000F00700012800F04381002800F01481FC
:104340000A68022803D112F4806240F0DA81D1F8C1
:10435000F020032802D112F002026ED10A6804286C
:104360004FF0000000F01C8224E200BF40F6004045
:10437000C4F20260D0F8E01001F00C01042900F052
:104380001F81002900F004810268082903D112F47A
:10439000806240F0B681D0F8F0000C2971E000BFD7
:1043A00040F60040C4F20260D0F8E01001F4407121
:1043B000B1F5807F00F00481002900F0E9800268F7
:1043C000B1F5007F03D112F4806240F09A81D0F8F9
:1043D000F000B1F5407F54E040F60041C4F20261C4
:1043E000D1F8E00000F44060B0F5806F00F0E880A4
:1043F000002800F0CD800A68B0F5006F03D112F4F8
:10440000806240F07E810A68B0F5406F4FF0000096
:1044100000F0C681CEE100BF40F60040C4F2026069
:10442000D0F8F010D0F8F02001F44071920740F17C
:104430004381B1F5807F40F03F814FF4004004B0EC
:1044400080BD00BF40F60040C4F20260D0F8E0102A
:1044500011F4402100F09C80D0F8F020B1F5802FBD
:1044600003D112F0006240F02E810268B1F5002FF6
:1044700003D112F4806240F04481D0F8F000B1F52D
:10448000402F00F002024FF0000008BF900304B07C
:1044900080BD00BF40F60040C4F20260D0F8E810D2
:1044A000C1F3C101DFE811F060008C00EC00A8004E
:1044B00040F60041C4F20261D1F8E800C0F30232D4
:1044C000052A00F24D81DFE812F021007B00070091
:1044D0004B014B01E50000BF01A8FFF777FB0398F4
:1044E00004B080BD40F60041C4F20261D1F8E4009E
:1044F00000F00702042A00F282804BF68030DFE8E9
:1045000012F005009F00F3005901C90004B0BDE896
:10451000804000F01FBE00BF40F60041C4F20261BF
:10452000D1F8E00000F44050B0F5805F48D078B397
:104530000A68B0F5005F03D112F4806240F0E180B8
:104540000A68B0F5405F4FF0000000F0298131E1CA
:1045500040F60040C4F20260D0F8E810C1F38111C7
:10456000DFE801F0022E8E4A04B0BDE8804000F082
:1045700047BE00BF40F60041C4F20261D1F8E0003E
:1045800000F44040B0F5804F1AD0002840F0B280CF
:1045900004B0BDE8804000F0F3BD00BF40F600402D
:1045A000C4F20260D0F8E010C1F30151DFE801F07D
:1045B0000208682404B0BDE8804000F001BE00BFDE
:1045C00004B0BDE8804000F03BBE00BF40F60040B4
:1045D000C4F20260D0F8E010C1F38161DFE801F0BD
:1045E0000252490C006846F600418004C0F2DC210A
:1045F00001EAE07004B080BD0168890602D40020A1
:1046000004B080BD8168090242D4D0F8F400CFE044
:1046100040F60041C4F20261D1F8E400C0F3421256
:10462000042AECD84BF68030DFE802F058040AC4C4
:10463000720000BF01A8FFF795FB019804B080BD90
:1046400001A8FFF7F7F9019804B080BD40F60040DB
:10465000C4F20260D0F8E0100068800301F04070FE
:1046600001D500284DD0B0F1007F37D0B0F1807F68
:10467000C5D101A8FFF7DEF9029804B080BD00BFE4
:10468000006846E001A8FFF7A1FA029804B080BDD7
:10469000806892E00868800600F18580AFE700BF7F
:1046A000026892043ED5B1F5805F3BD143F20060D1
:1046B000C0F26E1004B080BDD0F8F02012013FD5DA
:1046C000B1F5007F3CD1D0F8F000C0004FF0FA0007
:1046D00058BF4FF4FA4004B080BD00BF01A8FFF7F7
:1046E00075FA019804B080BD01A8FFF73BFB029862
:1046F00004B080BD0A68B0F5004F4BD112F480625F
:1047000048D042F20040C0F2F40004B080BD00BFC7
:10471000086842F200414005C0F2F40101EAE0708D
:1047200004B080BD0068B1F5005F00F480624FF016
:10473000000004BF42F20040C0F2F4000CE000BFF1
:104740000068B1F5407F00F400324FF0000004BF74
:104750004AF22010C0F20700002A08BF104629E0E4
:1047600000F4E0420B6842F20040B2F5405FC0F254
:10477000F40002D113F400331CD1096811F48061F4
:1047800018BF0146B2F5804F18BF0021084604B09B
:1047900080BD00BF0A68B0F5404F4FF0000009D15E
:1047A00012F0200206D08868000205D4D1F8F40087
:1047B000000402E004B080BD8868C0F3036047F2E3
:1047C0006C51C0F6020151F8200004B080BD000019
:1047D0002DE9F04F81B00446006840F6E04BC10778
:1047E000C4F2026B20D1810728D4410730D40107DD
:1047F00038D4C10640D4810648D4410650D40106BD
:1048000058D4C10560D4410268D4810570D44105F3
:1048100079D4010500F1828040F628488004C4F272
:10482000026800F18A80B4E0DBF80010226D21F00C
:1048300003011143CBF800108107D6D5DBF8001037
:10484000626D21F00C011143CBF800104107CED569
:10485000DBF80010A26D21F030011143CBF80010FD
:104860000107C6D5DBF80010E26D21F0C00111434D
:10487000CBF80010C106BED5DBF80010226E21F483
:1048800040711143CBF800108106B6D5DBF8081053
:10489000626E21F007011143CBF808104106AED536
:1048A000DBF80010A26E21F440611143CBF8001038
:1048B0000106A6D5DBF80010E26E21F44051114349
:1048C000CBF80010C1059ED5DBF80810226F21F04F
:1048D000C0011143CBF80810410296D5DBF8001057
:1048E000626F21F440411143CBF8001081058ED551
:1048F000DBF80810A26F21F440611143CBF80810D7
:1049000041057FF586AFDBF80010E26F21F440210E
:104910001143CBF8001001057FF57EAFDBF80810DE
:10492000D4F8802021F440711143CBF8081040F6F0
:1049300028488004C4F202682BD5D4F890004FEACE
:10494000701104290CD8DFE801F0030D171D1D00BC
:1049500004F1080005F0D6FD0646D8B908E000BF0E
:10496000012617E004F12C0005F046FE064688B942
:10497000D4F8900006E000BFD8F8001041F4803170
:10498000C8F80010DBF8041021F0E0010843CBF870
:10499000040000266078400602D4374638E000BFA5
:1049A000D4F894004FEA302004280BD83746DFE8CB
:1049B00000F0030F1B14140004F1080005F0A2FD21
:1049C0000AE000BF012701256078000624D449E0F1
:1049D00004F12C0005F010FE07463D4677B16078E3
:1049E000000619D43EE000BFD8F80000374640F476
:1049F0008030C8F80000002F3D46F0D1DBF80400FD
:104A0000D4F8941020F4E06008430027CBF80400A9
:104A100035466078000625D5D4F8A4004FEA30303A
:104A2000052807D802280BD03E468FB1A078C007D2
:104A30001CD139E001270126A078C00716D133E048
:104A400004F1080005F05EFD0746002F3E46EDD15B
:104A5000DBF80800D4F8A41020F4E0400843002755
:104A6000CBF808002E46A078C0071DD0D4F88800E7
:104A7000042800F29B81DFE810F00B0005009D0187
:104A80000B000B00D8F8000040F48030C8F800009C
:104A90003D4657B9DBF80400D4F8881020F0070031
:104AA00008430027CBF804003546A07880071FD5BF
:104AB000D4F88C004FEA3040042800F28581DFE80A
:104AC00010F00B00050087010B000B00D8F8000068
:104AD00040F48030C8F80000B94657B9DBF8080048
:104AE000D4F88C1020F4E02008430027CBF808000D
:104AF000A946A078400701D44D465DE05BF84C0C18
:104B00005FEA407A0BD45BF84C0C40F004004BF8A1
:104B10004C0C5BF84C0C00F00400009000984FF631
:104B20000045CFF6FF7558F8050040F0010048F841
:104B30000500FEF7DFFA064658F80500C00707D162
:104B4000FEF7D8FA801B0228F6D9032703252AE0AE
:104B50003D4647BBDBF8100010F4407018D0D4F885
:104B6000BC10884211D0DBF81000DBF8101020F4E4
:104B7000407041F48031CBF81010DBF8101021F4B4
:104B80008031CBF81010CBF81000C00740F02A811C
:104B9000DBF81000D4F8BC1020F440700843002764
:104BA0004D46CBF81000BAF1000F05D45BF84C0C61
:104BB00020F004004BF84C0CA078C0061BD5D4F8AC
:104BC0009C004FEAB060032800F2DA80DFE800F0D2
:104BD0000702DC0704F1080005F094FC074639469B
:104BE00057B9DBF80000D4F89C1020F0406008436F
:104BF0000027CBF800002946206802031ED5D4F810
:104C0000982032B1B2F5005F18BFB2F5805F40F076
:104C1000C7803E4657B1810213D4010225D4C10199
:104C20002ED4810137D4400140D465E0DBF8043054
:104C3000002723F440531A43CBF804200E46810288
:104C4000EBD5D4F8A010B1F5804F05D1D8F80020ED
:104C500042F48032C8F80020DBF8042022F48042BD
:104C60001143CBF804100102D9D5DBF80010D4F8B9
:104C7000B02021F440111143CBF80010C101D0D570
:104C8000DBF80010D4F8B42021F440311143CBF804
:104C900000108101C7D5DBF80810D4F8B82021F046
:104CA00018011143CBF80810400125D5D4F8AC0009
:104CB000B0F5401F0ED0B0F5001F05D1D8F80000A8
:104CC00040F40030C8F800003D465FB1E0780007CE
:104CD00016D43DE004F1080005F014FC0746002F4F
:104CE0003D46F3D1DBF80400D4F8AC1020F44010BA
:104CF00008430027CBF804003546E078000727D5A5
:104D0000D4F8840058B1B0F1007F11D0B0F1807FA9
:104D100030D1D8F8000040F40030C8F8000077B176
:104D2000E078C00618D4384601B0BDE8F08F00BF67
:104D300004F1080005F0E6FB0746002FF0D1DBF890
:104D40000000D4F8841020F040700843CBF8000035
:104D50002F46E078C006E6D5DBF80800D4F8A810A6
:104D600020F400400843CBF80800384601B0BDE805
:104D7000F08F00BF0127E078C006D4D5ECE700BF74
:104D80000127012138E700BFD8F8000040F40030C7
:104D9000C8F80000002F39467FF42EAF21E700BF8E
:104DA0000127012681027FF538AF4AE70127012557
:104DB0007BE600BF04F12C0005F01EFC0746002F27
:104DC0003D467FF472AE65E601274FF0010990E69B
:104DD00004F12C0005F010FC0746002FB9467FF4C3
:104DE00088AE7BE6FEF786F906460327032500BF5B
:104DF000DBF8100080073FF5CBAEFEF77BF9801B98
:104E000041F288318842F3D9CDE600002DE9F04F18
:104E100081B0002800F01C8142F20008C4F20208B0
:104E20000446D8F800000D4600F00F0088420DD26D
:104E3000D8F8000020F00F002843C8F80000D8F888
:104E4000000000F00F00A84240F00281206840F608
:104E50002049C106C4F202690DD56169D9F8042060
:104E600002F07002914206D9D9F8042022F07002B3
:104E70001143C9F8041001070FD52169D9F80020A2
:104E8000702303EA1212914207D9D9F8002022F4C4
:104E9000E06242EA0111C9F8001041070DD5E1684E
:104EA000D9F8002002F07002914206D9D9F800200A
:104EB00022F070021143C9F8001081070DD5A168D6
:104EC000D9F8002002F00F02914206D9D9F800204B
:104ED00022F00F021143C9F80010C00774D12068F6
:104EE00081070DD5A168D9F8002002F00F02914288
:104EF00006D2D9F8002022F00F021143C9F80010A1
:104F0000D8F8001001F00F01A9420DD9D8F800100F
:104F100021F00F012943C8F80010D8F8001001F063
:104F20000F01A94240F0948041070DD5E168D9F8FE
:104F3000002002F07002914206D2D9F8002022F03F
:104F400070021143C9F8001001070FD52169D9F883
:104F50000020702303EA1212914207D2D9F80020F0
:104F600022F4E06242EA0111C9F80010C0060DD532
:104F70006069D9F8041001F07001884206D2D9F8AE
:104F8000041021F070010843C9F8040000F058F93A
:104F9000D9F8001047F2D44201F00F01C0F6020226
:104FA000525C40F20401C2F20001096840F20C03B5
:104FB00020FA02F2C2F2000308461A6001B0BDE80E
:104FC000F04FFEF775BB00BF606840F61C47C4F2A7
:104FD000026768B3022831D0032835D1D9F87400AC
:104FE0005FEA407A0BD4D9F8740040F00400C9F8A5
:104FF0007400D9F8740000F0040000900098FEF7E7
:1050000079F84FF6F03BCFF6FF7B57F80B104903CA
:105010006AD4BAF1000F05D4D9F8740020F0040066
:10502000C9F8740057F81C0C800111D5606813E0B2
:1050300057F81C0C40070BD500200DE057F81C0C4E
:10504000800305D5022007E057F81C1C490503D44E
:10505000012001B0BDE8F08F396821F00301084359
:105060003860FEF747F861680646032941F2883A3E
:1050700025D0022931D069B9386810F00C0F3FF4FF
:105080002EAFFEF737F8801B50454FF00300F3D9E1
:10509000DFE700BF386800F00C0004283FF41FAFC2
:1050A000FEF728F8801B50454FF00300F2D9D0E7F7
:1050B000FEF720F8801B50454FF00300C9D8386830
:1050C00000F00C000C28F3D109E700BFFEF712F83E
:1050D000801B50454FF00300BBD8386800F00C002F
:1050E0000828F3D1FBE600BF064600BF57F80B00C7
:1050F00040043FF58EAFFDF7FDFF801B02284FF007
:105100000300F3D9A5E700001F22026040F6204209
:10511000C4F2026252F8043C03F0030343601368D4
:1051200003F00F038360136803F07003C360D2F8C9
:1051300000C0702303EA1C130361526802F070027E
:10514000426142F20000C4F20200006800F00F0069
:105150000860704780B500F073F840F62041C4F253
:105160000261096847F2D44201F00F01C0F6020261
:10517000515CC84040F20C01C2F20001086080BDE1
:1051800080B500F05DF840F62041C4F202610A6883
:1051900047F2D44302F00F02C0F602039A5CD040FB
:1051A00040F20C02C2F200021060096847F2E442C9
:1051B000C1F30211C0F60202515CC84080BD00007C
:1051C00080B500F03DF840F62041C4F202610A6863
:1051D00047F2D44302F00F02C0F602039A5CD040BB
:1051E00040F20C02C2F200021060096847F2E44289
:1051F000C1F30221C0F60202515CC84080BD00002C
:1052000080B500F01DF840F62041C4F202610A6842
:1052100047F2D44302F00F02C0F602039A5CD0407A
:1052200040F20C02C2F200021060496847F2E44208
:10523000C1F30211C0F60202515CC84080BD0000FB
:1052400040F62841C4F2026151F80C0C10F00C0237
:10525000086815D00C2A04BF00F0030001280FD005
:1052600051F80C0C9FED350A00F00C00042842F2B6
:105270000040C0F2F4001DD0082A18BF002019E039
:1052800051F8200C000205D4D1F8CC00C0F3033053
:1052900003E000BF51F8200C000F47F26C53C0F63A
:1052A000020353F82000002A00EE100A18BF002065
:1052B000B8EE400A0C2A18BF7047D1F800C00A683F
:1052C0000B68C2F3032208690132C008DB069FEDB8
:1052D0001C1A00EAE3705FEA8C7358BFB0EE401A04
:1052E00000EE102A6FF35F30B8EE400A9FED153ADA
:1052F00081EE000A01EE100AC868B8EE411A6FF399
:105300005F2002EE100A21EE031AB8EE422AC868A6
:1053100031EE021AB7EE002AC0F3066031EE021A2F
:10532000013020EE010A01EE100AB8EE411A80EEBB
:10533000010ABCEEC00A10EE100A7047000000001F
:105340000024744B00000039002804BF012070477E
:105350002DE9F04782B040F6944A0446C4F2026A4E
:105360005AF8780C5AF86C1C227800F00C07D0061A
:1053700001F0030822D42078C0077BD0082F75D015
:105380000C2F08BFB8F1030F70D0606840F60046DC
:10539000B0F5803FC4F2026600F0E882B0F5A81FC5
:1053A00000F0DC82B0F5A02F40F0F482306840F4C9
:1053B00080203060306820F48010D6E217B30C2FC4
:1053C00008BFB8F1010F1DD040F60046C4F20266D6
:1053D000E1693068002900F0D58140F001003060BB
:1053E000FDF788FE054600BF3068400700F1DC810C
:1053F000FDF780FE401B02284FF00300F4D900F0B7
:1054000059BD00BFE069002800F0678540F60049FB
:10541000C4F20269656AD9F8080000025ABFDAF8D6
:1054200060000004D9F8080000F07040854240F2A6
:105430007781002F40F0ED84DAF80000400700F19A
:105440002383DAF8000040F00400CAF80000DAF81C
:10545000000000F0040001900198FEF7D9FADAF894
:10546000001021F00401CAF800100FE36068002862
:1054700000F03385207880072FD5042F20D00C2F03
:1054800008BFB8F1020F1BD040F60046C4F2026616
:10549000E1683068002900F03D8240F4807030609F
:1054A000FDF728FE054600BF306840050CD4FDF727
:1054B00021FE401B02284FF00300F5D900F0FABC92
:1054C000E068002800F009855AF8840C216920F46E
:1054D000F81040EA01404AF8840C207840F6004772
:1054E0000007C4F2026771D42078400700F1C6803B
:1054F0002078800600F12E812078000600F1688176
:105500002078400600F1B281A56B002D00F06E847A
:105510005AF8780C00F00C000C2840F06B825AF816
:105520006C1C5AF8600C012D00F0D784E26B01F07E
:105530000303934240F0D184226CC1F30323013A68
:10554000934240F0CA84626C01F47041914240F091
:10555000C484A26C01466FF35F21013A914240F08E
:10556000BC84E16CC0F3462201398A4240F0B58424
:10557000216DC0F3064201398A4240F0AE84616D6C
:10558000C0F306600139884240F0A7845AF85C0CE9
:10559000E16DC0F3CC00884200F028845AF86C0C0E
:1055A00020F010004AF86C0CFDF7A4FD0546FDF74D
:1055B000A1FDA842FBD0E06DC0004AF85C0C5AF88F
:1055C0006C0C40F0100000F00FBC00BFDAF80000D7
:1055D0005FEA40780BD4DAF8000040F00400CAF823
:1055E0000000DAF8000000F00400019001984FF686
:1055F0002846CFF6FF76B859C00713D1B85940F006
:105600000100B851FDF776FD054600BFB859C00747
:1056100008D1FDF76FFD401B0228F7D9032002B027
:10562000BDE8F0876069DAF85C10002800F0E880D7
:10563000A06901F08052904200F0D08201F04062F7
:10564000B2F1006F00F04984490140F1C082DAF8FC
:105650005C0020F0A050CAF85C00FDF74BFD054649
:10566000DAF85C00000140F1B182FDF743FD401B18
:1056700005284FF00300F3D900F01CBCDAF8000055
:105680005FEA40780BD4DAF8000040F00400CAF872
:105690000000DAF8000000F00400019001984FF6D5
:1056A0002846CFF6FF76B859C00713D1B85940F055
:1056B0000100B851FDF71EFD054600BFB859C007EF
:1056C00008D1FDF717FD401B02284FF00300F5D964
:1056D00000F0F0BBA068C10740F0A880DAF85C10C9
:1056E000002821F00101CAF85C10DAF85C1021F002
:1056F0000401CAF85C1040F0A780FDF7FBFC0546EA
:1057000041F28836DAF85C00800740F13782FDF715
:10571000F1FC401BB0424FF00300F3D9CAE300BFD5
:10572000D9F80800B5F1404F40F40000C9F808006E
:10573000D9F8080020F0704040EA0500C9F80800D8
:10574000C0F0AE80D9F80C00216A20F01F00084399
:10575000CEE100BFE16A3868002900F0ED8040F436
:1057600080503860FDF7C6FC054600BF38688004ED
:105770003FF5C2AEFDF7BEFC401B02284FF0030010
:10578000F4D997E320F001003060FDF7B3FC054643
:10579000306840077FF5EFADFDF7ACFC401B0228F9
:1057A0004FF00300F4D985E3B06840F40000B06026
:1057B000B168606A21F070410143B0F1404FB160BF
:1057C000C0F09880F068216A20F01F000843D1E102
:1057D000216B3868002900F0FB8040F4804038607D
:1057E000FDF788FC054600BF386800043FF588AE29
:1057F000FDF780FC401B02284FF00300F4D959E369
:1058000021F0A050CAF85C00FDF774FC054600BF0B
:10581000DAF85C00000140F1F781FDF76BFC401BFA
:1058200005284FF00300F3D944E300BFDAF85C1019
:10583000400705D541F00400CAF85C00DAF85C10B6
:1058400041F00100CAF85C00FDF754FC054641F246
:10585000883600BFDAF85C00800731D4FDF74AFCD7
:10586000401BB0424FF00300F4D923E3606B0028E3
:1058700000F0F680B86840F40000B860B968D4E978
:10588000090221F07061B0F1404F41EA0201B960B4
:10589000C0F01A81F868216A20F01F00084377E2FF
:1058A000B5F1FF3F40F3FE80D9F80C10206AB5F146
:1058B000804FC0F0198121F4F84141EA802017E1BE
:1058C000A168DAF85C00090600F1B68020F08000DB
:1058D00041F28836CAF85C00DAF85C00000540F155
:1058E0005281FDF707FC401BB0424FF00300F3D993
:1058F000E0E200BFB0F1FF3F40F33081F268216A7F
:10590000B0F1804FC0F0328122F4F84040EA8120AB
:1059100030E100BF20F480703060FDF7EBFB0546FE
:10592000306840057FF5D9ADFDF7E4FB401B022848
:105930004FF00300F4D9BDE220F480503860FDF749
:10594000D9FB0546386880047FF5D6ADFDF7D2FB5C
:10595000401B02284FF00300F4D9ABE2306840F45A
:1059600080203060306840F480103060306840F44F
:1059700080303060FDF7BEFB054600BF3068800315
:105980003FF578ADFDF7B6FB401B64284FF00300F0
:10599000F4D98FE23168002821F480313160316818
:1059A00021F480213160316821F480113160E1D12E
:1059B000FDF7A0FB0546306880037FF55BADFDF782
:1059C00099FB401B64284FF00300F4D972E200BF3A
:1059D00020F480403860FDF78DFB054638680004F0
:1059E0007FF58EADFDF786FB401B02284FF00300CC
:1059F000F4D95FE2386820F080703860FDF77AFBF8
:105A0000022D05460CD13868800140F10981FDF76F
:105A100071FB401B02284FF00300F4D94AE200BF9B
:105A20003868800140F18A81FDF764FB401B022841
:105A30004FF00300F4D93DE240F0800041F2883697
:105A4000CAF85C00DAF85C00000500F19C80FDF704
:105A500051FB401BB0424FF00300F3D92AE200BFD4
:105A6000386820F010003860FDF744FB054600BFA1
:105A7000386880067FF548ADFDF73CFB401B0228E7
:105A80004FF00300F4D915E2FDF7C2FF20F4803196
:105A9000B1F5003F0ED10021B5F1805F38BF012183
:105AA000A9E100BFD9F80C00216A20F4787040EA1F
:105AB00041101DE00021B1EB157F6FD1B0F5803FA3
:105AC00040F00B82032196E1B0F1FF3F40F33E81AD
:105AD000FA68216AB0F1804FC0F0568122F4F84094
